{
  "contractName": "MockWordaoClient",
  "abi": [
    {
      "constant": true,
      "inputs": [
        {
          "name": "",
          "type": "uint256"
        }
      ],
      "name": "wordMapUncompressed",
      "outputs": [
        {
          "name": "",
          "type": "bytes32"
        }
      ],
      "payable": false,
      "stateMutability": "view",
      "type": "function"
    },
    {
      "constant": true,
      "inputs": [
        {
          "name": "",
          "type": "bytes32"
        }
      ],
      "name": "wordMapCompressed",
      "outputs": [
        {
          "name": "",
          "type": "uint256"
        }
      ],
      "payable": false,
      "stateMutability": "view",
      "type": "function"
    },
    {
      "inputs": [
        {
          "name": "_words",
          "type": "bytes32[]"
        }
      ],
      "payable": false,
      "stateMutability": "nonpayable",
      "type": "constructor"
    },
    {
      "constant": true,
      "inputs": [
        {
          "name": "_value",
          "type": "bytes32"
        }
      ],
      "name": "compress",
      "outputs": [
        {
          "name": "_index",
          "type": "uint256"
        }
      ],
      "payable": false,
      "stateMutability": "view",
      "type": "function"
    },
    {
      "constant": true,
      "inputs": [
        {
          "name": "_index",
          "type": "uint256"
        }
      ],
      "name": "uncompress",
      "outputs": [
        {
          "name": "_value",
          "type": "bytes32"
        }
      ],
      "payable": false,
      "stateMutability": "view",
      "type": "function"
    }
  ],
  "bytecode": "0x608060405234801561001057600080fd5b506040516103193803806103198339810180604052602081101561003357600080fd5b81019080805164010000000081111561004b57600080fd5b8281019050602081018481111561006157600080fd5b815185602082028301116401000000008211171561007e57600080fd5b505092919050505060008090505b81518110156100fd5781818151811015156100a357fe5b9060200190602002015160008083815260200190815260200160002081905550806001600084848151811015156100d657fe5b9060200190602002015181526020019081526020016000208190555080600101905061008c565b505061020b8061010e6000396000f3fe608060405234801561001057600080fd5b5060043610610069576000357c01000000000000000000000000000000000000000000000000000000009004806301f52d711461006e578063044c43a2146100b057806348fad3e1146100f2578063fc8e46d314610134575b600080fd5b61009a6004803603602081101561008457600080fd5b8101908080359060200190929190505050610176565b6040518082815260200191505060405180910390f35b6100dc600480360360208110156100c657600080fd5b8101908080359060200190929190505050610193565b6040518082815260200191505060405180910390f35b61011e6004803603602081101561010857600080fd5b81019080803590602001909291905050506101ab565b6040518082815260200191505060405180910390f35b6101606004803603602081101561014a57600080fd5b81019080803590602001909291905050506101c3565b6040518082815260200191505060405180910390f35b600060016000838152602001908152602001600020549050919050565b60006020528060005260406000206000915090505481565b60016020528060005260406000206000915090505481565b600080600083815260200190815260200160002054905091905056fea165627a7a723058203c2f7910950b887310ce43484ed2a620ffbde14e55de64aed183e8d64b2577ae0029",
  "source": "pragma solidity 0.5.2;\n\n\ncontract MockWordaoClient {\n  mapping (uint => bytes32) public wordMapUncompressed;\n  mapping (bytes32 => uint) public wordMapCompressed;\n\n  constructor(bytes32[] memory _words) public {\n    for (uint i = 0; i < _words.length; ++i) {\n      wordMapUncompressed[i] = _words[i];\n      wordMapCompressed[_words[i]] = i;\n    }\n  }\n\n  function compress(bytes32 _value) public view returns (uint _index) {\n    return wordMapCompressed[_value];\n  }\n\n  function uncompress(uint _index) public view returns (bytes32 _value) {\n    return wordMapUncompressed[_index];\n  }\n}\n",
  "sourcePath": "/Users/jo/projects/ethnewyork/foamPoiTagger/contracts/MockWordaoClient.sol",
  "compiler": {
    "name": "solc",
    "version": "0.5.2+commit.1df8f40c.Emscripten.clang"
  },
  "schemaVersion": "3.0.9",
  "updatedAt": "2019-05-18T14:50:20.133Z",
  "devdoc": {
    "methods": {}
  },
  "userdoc": {
    "methods": {}
  }
}