{
  "contractName": "PoiTagger",
  "abi": [
    {
      "constant": true,
      "inputs": [
        {
          "name": "",
          "type": "address"
        },
        {
          "name": "",
          "type": "uint256"
        }
      ],
      "name": "cscTags",
      "outputs": [
        {
          "name": "",
          "type": "uint256"
        }
      ],
      "payable": false,
      "stateMutability": "view",
      "type": "function"
    },
    {
      "constant": true,
      "inputs": [
        {
          "name": "_tags",
          "type": "bytes32[]"
        }
      ],
      "name": "cscTagsLengths",
      "outputs": [
        {
          "name": "",
          "type": "uint256"
        }
      ],
      "payable": false,
      "stateMutability": "nonpayable",
      "type": "constructor"
    },
    {
      "inputs": [
        {
          "name": "cscAddress",
          "type": "address",
          "indexed": false
        },
        {
          "indexed": false,
          "name": "tag",
          "type": "bytes32"
        },
        {
          "indexed": false,
          "name": "index",
          "type": "uint256"
        }
      ],
      "payable": false,
      "stateMutability": "nonpayable",
      "type": "event",
      "anonymous": false,
      "name": "AddedTag"
    },
    {
      "anonymous": false,
      "inputs": [
        {
          "indexed": false,
          "name": "_cscAddress",
          "type": "address"
        },
        {
          "indexed": false,
          "name": "_tag",
          "type": "bytes32"
        }
      ],
      "name": "addTag",
      "type": "function",
      "constant": false,
      "outputs": [
        {
          "name": "_tagAdded",
          "type": "bool"
        }
      ],
      "payable": false,
      "stateMutability": "nonpayable"
    },
    {
      "constant": true,
      "inputs": [
        {
          "name": "_cscAddress",
          "type": "address"
        },
        {
          "name": "_tag",
          "type": "bytes32"
        }
      ],
      "name": "getTags",
      "outputs": [
        {
          "name": "_tags",
          "type": "bytes32[]"
        }
      ],
      "payable": false,
      "stateMutability": "view",
      "type": "function"
    },
    {
      "constant": true,
      "inputs": [
        {
          "name": "_cscAddress",
          "type": "address"
        }
      ],
      "name": "getTags",
      "outputs": [
        {
          "name": "_tags",
          "type": "bytes32[]"
        }
      ],
      "payable": false,
      "stateMutability": "view",
      "type": "function"
    }
  ],
  "bytecode": "0x608060405234801561001057600080fd5b506040516109ea3803806109ea8339810180604052602081101561003357600080fd5b81019080805164010000000081111561004b57600080fd5b8281019050602081018481111561006157600080fd5b815185602082028301116401000000008211171561007e57600080fd5b50509291905050508061008f61013d565b8080602001828103825283818151815260200191508051906020019060200280838360005b838110156100cf5780820151818401526020810190506100b4565b5050505090500192505050604051809103906000f0801580156100f6573d6000803e3d6000fd5b50600160006101000a81548173ffffffffffffffffffffffffffffffffffffffff021916908373ffffffffffffffffffffffffffffffffffffffff1602179055505061014d565b604051610319806106d183390190565b6105758061015c6000396000f3fe608060405234801561001057600080fd5b506004361061005e576000357c0100000000000000000000000000000000000000000000000000000000900480635eafd108146100635780635fc46f90146100c9578063d22b68bb14610162575b600080fd5b6100af6004803603604081101561007957600080fd5b81019080803573ffffffffffffffffffffffffffffffffffffffff169060200190929190803590602001909291905050506101c4565b604051808215151515815260200191505060405180910390f35b61010b600480360360208110156100df57600080fd5b81019080803573ffffffffffffffffffffffffffffffffffffffff169060200190929190505050610377565b6040518080602001828103825283818151815260200191508051906020019060200280838360005b8381101561014e578082015181840152602081019050610133565b505050509050019250505060405180910390f35b6101ae6004803603604081101561017857600080fd5b81019080803573ffffffffffffffffffffffffffffffffffffffff16906020019092919080359060200190929190505050610519565b6040518082815260200191505060405180910390f35b6000806000808573ffffffffffffffffffffffffffffffffffffffff1673ffffffffffffffffffffffffffffffffffffffff168152602001908152602001600020600160009054906101000a900473ffffffffffffffffffffffffffffffffffffffff1673ffffffffffffffffffffffffffffffffffffffff166301f52d71856040518263ffffffff167c01000000000000000000000000000000000000000000000000000000000281526004018082815260200191505060206040518083038186803b15801561029457600080fd5b505afa1580156102a8573d6000803e3d6000fd5b505050506040513d60208110156102be57600080fd5b81019080805190602001909291905050509080600181540180825580915050906001820390600052602060002001600090919290919091505590507f5d806d53c673979741ebc261bb0d142ad778b958b70bbe5002235929852e4bbf848483604051808473ffffffffffffffffffffffffffffffffffffffff1673ffffffffffffffffffffffffffffffffffffffff168152602001838152602001828152602001935050505060405180910390a1600191505092915050565b60608060008090505b6000808573ffffffffffffffffffffffffffffffffffffffff1673ffffffffffffffffffffffffffffffffffffffff1681526020019081526020016000208054905081101561050f57600160009054906101000a900473ffffffffffffffffffffffffffffffffffffffff1673ffffffffffffffffffffffffffffffffffffffff1663fc8e46d36000808773ffffffffffffffffffffffffffffffffffffffff1673ffffffffffffffffffffffffffffffffffffffff1681526020019081526020016000208381548110151561045257fe5b90600052602060002001546040518263ffffffff167c01000000000000000000000000000000000000000000000000000000000281526004018082815260200191505060206040518083038186803b1580156104ad57600080fd5b505afa1580156104c1573d6000803e3d6000fd5b505050506040513d60208110156104d757600080fd5b810190808051906020019092919050505082828151811015156104f657fe5b9060200190602002018181525050806001019050610380565b5080915050919050565b60006020528160005260406000208181548110151561053457fe5b9060005260206000200160009150915050548156fea165627a7a72305820b717bb3d3b2fe92741ce5fa28d20e0fd1a6420a254440e5c43f8b4cf3cdb846f0029608060405234801561001057600080fd5b506040516103193803806103198339810180604052602081101561003357600080fd5b81019080805164010000000081111561004b57600080fd5b8281019050602081018481111561006157600080fd5b815185602082028301116401000000008211171561007e57600080fd5b505092919050505060008090505b81518110156100fd5781818151811015156100a357fe5b9060200190602002015160008083815260200190815260200160002081905550806001600084848151811015156100d657fe5b9060200190602002015181526020019081526020016000208190555080600101905061008c565b505061020b8061010e6000396000f3fe608060405234801561001057600080fd5b5060043610610069576000357c01000000000000000000000000000000000000000000000000000000009004806301f52d711461006e578063044c43a2146100b057806348fad3e1146100f2578063fc8e46d314610134575b600080fd5b61009a6004803603602081101561008457600080fd5b8101908080359060200190929190505050610176565b6040518082815260200191505060405180910390f35b6100dc600480360360208110156100c657600080fd5b8101908080359060200190929190505050610193565b6040518082815260200191505060405180910390f35b61011e6004803603602081101561010857600080fd5b81019080803590602001909291905050506101ab565b6040518082815260200191505060405180910390f35b6101606004803603602081101561014a57600080fd5b81019080803590602001909291905050506101c3565b6040518082815260200191505060405180910390f35b600060016000838152602001908152602001600020549050919050565b60006020528060005260406000206000915090505481565b60016020528060005260406000206000915090505481565b600080600083815260200190815260200160002054905091905056fea165627a7a723058203c2f7910950b887310ce43484ed2a620ffbde14e55de64aed183e8d64b2577ae0029",
  "source": "pragma solidity 0.5.2;\n\nimport \"./MockWordaoClient.sol\";\n\n\ncontract PoiTagger {\n  mapping (address => uint[]) public cscTags;\n\n  MockWordaoClient wordaoClient;\n\n  event AddedTag(\n    address cscAddress,\n    bytes32 tag,\n    uint index\n  );\n\n  constructor(bytes32[] memory _tags) public {\n    // Init anything here\n    wordaoClient = new MockWordaoClient(_tags);\n  }\n\n  function addTag(address _cscAddress, bytes32 _tag) public returns (bool _tagAdded) {\n    uint nextIndex = cscTags[_cscAddress].push(wordaoClient.compress(_tag));\n    emit AddedTag(_cscAddress, _tag, nextIndex);\n\n    return true;\n  }\n\n  function getTags(address _cscAddress) external view returns (bytes32[] memory _tags) {\n    bytes32[] memory tags;\n\n    for (uint i = 0; i < cscTags[_cscAddress].length; ++i) {\n      tags[i] = wordaoClient.uncompress(cscTags[_cscAddress][i]);\n    }\n\n    return tags;\n  }\n}\n",
  "sourcePath": "/Users/jo/projects/ethnewyork/foamPoiTagger/contracts/PoiTagger.sol",
  "compiler": {
    "name": "solc",
    "version": "0.5.2+commit.1df8f40c.Emscripten.clang"
  },
  "schemaVersion": "3.0.9",
  "updatedAt": "2019-05-18T16:15:01.678Z",
  "devdoc": {
    "methods": {}
  },
  "userdoc": {
    "methods": {}
  }
}